:100000000C9453010C947B010C947B010C947B01A8
:100010000C947B010C947B010C947B010C947B0170
:100020000C947B010C947B010C947B010C947B0160
:100030000C947B010C947B010C947B010C947B0150
:100040000C947B1A0C947B010C94D4140C9405151D
:100050000C947B010C947B010C947B010C947B0130
:100060000C944C020C947B01000000000000007D09
:10007000000000102010200A1F0A1F0A31497F4982
:100080004633360C1B332E515B240A0000700000EF
:10009000001C6300000000631C0022143E142208B0
:1000A000083E0808000102000008080808080100CE
:1000B00000000001060830403E4549513E00217FC6
:1000C0000100214345493122414949360C14247F1E
:1000D00004725151514E3E4949492640404F5060AB
:1000E0003649494936324949493E0000140000006A
:1000F00001120000081414222214141414142222D1
:1001000014140800304548301E2D555D3A3F4848CC
:10011000483F7F494949363E414141227F41412282
:100120001C7F494949417F484848403E4149492E42
:100130007F0808087F00417F4100060101017E7FA2
:10014000081422417F010101017F2010207F7F10D0
:1001500008047F3E4141413E7F484848303E41458A
:10016000423D7F484C4A31314949494640407F40F1
:10017000407E0101017E7C0201027C7F0204027F3D
:10018000631408146360100F106043454951610007
:100190003E41410040300806010041413E00102030
:1001A0004020100101010101000836410000007FDC
:1001B000000000413608000810080408DC60301810
:1001C000EC8484847C04008C90A07C808080FC8003
:1001D0009C8080807C0000FC00000080FC4000FCD3
:1001E0008080807CFC048484780040C04000808053
:1001F00080807F848484847C00C4485020FC848474
:10020000847CBC4084847C0080FF000004040404DF
:10021000FCF88484847804FC0404F8E0A0807F0067
:10022000ECA484847C80601F20C084442414E8BF34
:1002300080889060808080807CFC04FC04F804FC52
:1002400080807C00000000240027002A00000000BD
:1002500000250028002B00000000002300260029B4
:10026000000404040404040404020202020202035F
:100270000303030303010204081020408001020469
:1002800008102001020408102000000007000201ED
:1002900000000304060000000000000000006A04E3
:1002A000F108CA15F60811241FBECFEFD8E0DEBF53
:1002B000CDBF11E0A0E0B1E0E2E2FFE302C00590B3
:1002C0000D92A63FB107D9F714E0A6EFB1E001C047
:1002D0001D92A83AB107E1F712E0C4EAD2E004C0E7
:1002E0002297FE010E948E1CCE39D107C9F70E94C9
:1002F0006C1A0C94841F0C94000010921A0282E174
:1003000061E00E94D51B83E161E00E94D51BE9EB0F
:10031000F0E080818E7F808380818D7F808388E480
:100320008093B80085E48093BC000895880F809383
:10033000BA000895413288F590911A029923E1F7A5
:1003400091E090931A029FEF909319021092F70197
:10035000942F91509093F801880F81608093F6015B
:1003600085EE8093BC0080911A028130E1F3809188
:10037000F701841710F44091F701E9EFF1E0262F1F
:10038000372FD901242F30E02E0F3F1F02C081915B
:100390008D93E217F307D9F701C040E0842F089549
:1003A0004132B0F590911A029923E1F792E09093CF
:1003B0001A029FEF909319021092F7014093F801EF
:1003C000DB01E9EFF1E050E04E0F5F1F02C09D91AD
:1003D0009193E417F507D9F790E0880F991F809360
:1003E000F60185EE8093BC00222321F080911A0251
:1003F0008230E1F3809119028F3F61F08091190200
:10040000803251F080911902803341F483E00895E5
:1004100081E0089580E0089582E0089584E00895E1
:100420006132A0F420911A02243091F460933F02CB
:10043000DC01E2E4F2E070E06E0F7F1F02C08D91FC
:100440008193E617F707D9F780E0089581E00895D2
:1004500082E0089590933D0280933C02089590932A
:100460004102809340020895882311F085EC01C079
:1004700085E88093BC00089585ED8093BC00809151
:10048000BC0084FDFCCF10921A02089585EC809385
:10049000BC0010921A0208951F920F920FB60F928D
:1004A00011242F933F934F935F936F937F938F9379
:1004B0009F93AF93BF93EF93FF938091B90090E028
:1004C000887F90708036910509F4C2C0813691050D
:1004D000E4F58832910509F47EC089329105C4F4AF
:1004E0008031910509F472C08131910544F400977F
:1004F00009F413C18830910509F013C167C0883130
:10050000910509F468C08032910509F00AC178C0EC
:100510008034910509F48AC0813491054CF480330C
:10052000910509F46FC08833910509F0FAC06EC0D7
:100530008035910509F46EC08835910509F47BC0BA
:100540008834910509F0EDC0EAC08839910509F4B5
:10055000DAC089399105ECF48837910509F478C03F
:10056000893791054CF48836910509F471C08037BC
:10057000910509F0D6C06CC08838910509F4C3C054
:100580008039910509F46AC08038910509F0C9C025
:1005900065C0803B910509F48EC0813B91054CF408
:1005A000803A910509F46CC0883A910509F0B9C008
:1005B00082C0803C910509F4AAC0883C910509F4E9
:1005C000A6C0883B910509F0ACC08AC08091F601B5
:1005D0008093BB0013C09091F7018091F8019817A8
:1005E00008F09DC08091F701E82FF0E0E750FE4F42
:1005F00090819093BB008F5F8093F70181E084C06E
:1006000080E201C080E38093190289C088E380936F
:1006100019024EC08091F7019091BB00E82FF0E0E5
:10062000E750FE4F90838F5F8093F7019091F70121
:100630008091F80165C08091F7019091BB00E82F8F
:10064000F0E0E750FE4F90838F5F8093F70167C023
:1006500083E080931A0210921B02D0CF80911B027C
:10066000803208F050C080911B029091BB00E82FAF
:10067000F0E0E45EFD4F90838F5F80931B02BECF5E
:1006800080911B02803230F4E0911B02F0E0E45EC6
:10069000FD4F10820E943C0260911B02E0913C02DF
:1006A000F0913D028CE192E070E0099510921B02FE
:1006B0000E94460236C084E080931A0210923E02E5
:1006C00010923F02E0914002F09141020995809121
:1006D0003F02882329F481E080933F021092420276
:1006E00080913E02E82FF0E0EE5BFD4F9081909309
:1006F000BB008F5F80933E0290913E0280913F024B
:10070000981708F47BCF80E00E9434020AC081E091
:100710000E94340210921A0204C0109219020E9420
:100720003C02FF91EF91BF91AF919F918F917F918B
:100730006F915F914F913F912F910F900FBE0F904E
:100740001F9018952091830230E080918202281B2F
:100750003109C9010895809182029091830289171D
:1007600050F4E82FF0E0EE59FD4F208130E08F5F2C
:100770008093820202C02FEF3FEFC9010895E091FC
:10078000820280918302E81730F4F0E0EE59FD4FC9
:10079000208130E002C02FEF3FEFC9010895089596
:1007A000CF92DF92EF92FF920F931F93CF93DF933D
:1007B0006C01CB01EA012091A7022223B1F0E62EC1
:1007C000F92E00E010E00DC0D7016D917D01D6013A
:1007D000ED91FC910190F081E02DC60109950F5F2C
:1007E0001F4F0C171D0780F303C0642F0E941002D7
:1007F000CE01DF91CF911F910F91FF90EF90DF908D
:10080000CF900895DF93CF930F92CDB7DEB7698372
:100810002091A7022223D1F02091A602203240F09D
:1008200021E030E0FC013383228320E030E015C07A
:100830008091A502E82FF0E0EB57FD4F998190835E
:100840008F5F8093A5028093A60205C0CE0101961A
:1008500061E00E94100221E030E0C9010F90CF91C9
:10086000DF91089510928202109283021092A502E5
:100870001092A6020E947D010895862F413208F051
:1008800040E262E672E00E949A0110928202809336
:10089000830208950E943D04089581E08093A70299
:1008A000609384021092A5021092A60208950E94FD
:1008B0004D0408958091840265E872E04091A6029B
:1008C00021E00E94D0011092A5021092A60210927F
:1008D000A70208951092AB021092AA0288EE93E04C
:1008E000A0E0B0E08093AC029093AD02A093AE0282
:1008F000B093AF028AED91E09093A9028093A80291
:100900000895CF92DF92EF92FF920F93DF93CF93F0
:10091000CDB7DEB727970FB6F894DEBF0FBECDBFB9
:100920008CE794E040E051EE60E070E00E944C15EE
:1009300088E060E00E94B11B7E010894E11CF11C7C
:10094000C70160E071E00E94011880E4C82E83E0D6
:10095000D82EC601B70140E027E605E60E945A12EC
:10096000C7010E948F176CED75E080E090E00E9457
:10097000F71AC6010E947E1327960FB6F894DEBFC1
:100980000FBECDBFCF91DF910F91FF90EF90DF9021
:10099000CF900895EF92FF920F931F93DF93CF9321
:1009A000CDB7DEB72E970FB6F894DEBF0FBECDBF22
:1009B0008091F203882309F091C08CEC93E00E94AF
:1009C000BE0C882351F07E010894E11CF11CC70184
:1009D0006CEC73E00E94BD0F41C00E94C31A7B0102
:1009E0008C018091E9039091EA03A091EB03B0910F
:1009F000EC03E816F9060A071B07B9F00E94C31AB0
:100A00002091E9033091EA034091EB035091EC030C
:100A1000621B730B840B950B613322EF720720E08E
:100A2000820720E0920780F42EC00E94C31AE61AC3
:100A3000F70A080B190B81E3E81682EFF80680E04D
:100A4000080780E01807F8F098E0E92EF12CEC0E8A
:100A5000FD1EC70164E071E00E94011880E493E08C
:100A6000B70140E027E605E60E945A12C7010E943E
:100A70008F170E94C31A6093E9037093EA0380936F
:100A8000EB039093EC030E94C31A28EE33E040E09E
:100A900050E00E94561C653F21E0720720E082076B
:100AA00020E0920768F080E493E06FE043E027E6FF
:100AB0000E94B11180E493E06FE045E027E60CC0AE
:100AC00080E493E06FE043E022E60E94B11180E40D
:100AD00093E06FE045E022E60E94B1112E960FB63A
:100AE000F894DEBF0FBECDBFCF91DF911F910F9164
:100AF000FF90EF900895EF92FF920F931F93DF9373
:100B0000CF93CDB7DEB72E970FB6F894DEBF0FBEEA
:100B1000CDBF88E00E940D1C009781F168EC70E069
:100B200080E090E00E94F71A8CE794E06091F20375
:100B300042E050E00E9421178091F2038823B9F02F
:100B40001092F2037E010894E11CF11CC7016CECC9
:100B500073E00E94BD0F80E493E0B70140E027E618
:100B600005E60E945A12C7010E948F1703C081E058
:100B70008093F20380E493E00E947E138E01085F6D
:100B80001F4FC8016CEC73E00E94BD0FC8016AE002
:100B900071E00E945D19882329F001E08091F20341
:100BA000813009F000E0CE0108960E948F170023E3
:100BB00011F01092F2032E960FB6F894DEBF0FBE1E
:100BC000CDBFCF91DF911F910F91FF90EF900895CE
:100BD0008F929F92AF92BF92DF92EF92FF920F930C
:100BE0001F93CF93DF93C6EBD2E029E0D22EEF84A0
:100BF000F888A880B9808C849D848FE18816910440
:100C000044F4682D6F5F80E493E04D2D22E60E944E
:100C1000B1111E141F04C4F41A2D00E00FC06A0D98
:100C20007B1D84EB92E00E94D109282F80E493E0A1
:100C3000612F4D2D0E94B1110F5F1F5F602F70E07B
:100C4000E616F70664F712C0E114F10479F000E04B
:100C500010E0602F6A0D80E493E04D2D22E60E94A3
:100C6000B11101501040E016F1069CF380E493E0CE
:100C7000682D4D2D2E850E94B1116396D3948D2D34
:100C8000803109F0B4CFDF91CF911F910F91FF9088
:100C9000EF90DF90BF90AF909F908F900895EF926C
:100CA000FF920F931F93DF93CF93CDB7DEB7659776
:100CB0000FB6F894DEBF0FBECDBFE090F30384EB18
:100CC00092E00E94DD098E2199F08091F103882342
:100CD00061F481E08093F10380E493E061E00E949D
:100CE000FD1384EB92E00E94510A0E94E805A0C027
:100CF0000E94C31A7B018C018091ED039091EE0359
:100D0000A091EF03B091F003E816F9060A071B075C
:100D1000B9F00E94C31A2091ED033091EE03409187
:100D2000EF035091F003621B730B840B950B693B2F
:100D30002BE0720720E0820720E0920788F478C059
:100D40000E94C31AE61AF70A080B190B89EBE8167A
:100D50008BE0F80680E0080780E0180708F468C018
:100D60000E94C31A6093ED037093EE038093EF0328
:100D70009093F0031092F10380E493E061E00E940D
:100D8000FD135091D2014091D3013091D4012091B3
:100D9000E80380E090E0222371F45523F1F11092F2
:100DA000E8037E010894E11CF11CC7016CEC73E0C0
:100DB0000E94231010C02130F9F4442371F12093D4
:100DC000E80348E0E42EF12CEC0EFD1EC70164ECB4
:100DD00073E00E948D0B80E493E0B70141E027E6C9
:100DE00005E60E945A12C7010E948F178091E803FE
:100DF0008F5F8093E8031CC0223079F4332369F0BD
:100E00002093E8033FE0E32EF12CEC0EFD1EC7011A
:100E100064EC73E00E94DB0BDECF2F5F233008F021
:100E200020E001968430910509F0B5CF2093E803C6
:100E300065960FB6F894DEBF0FBECDBFCF91DF91A0
:100E40001F910F91FF90EF900895CF92DF92EF9254
:100E5000FF920F931F93DF93CF93CDB7DEB7C755A4
:100E6000D0400FB6F894DEBF0FBECDBF8E010C5F31
:100E70001F4FC80160E171E00E940118F02EE12EC1
:100E800009C08CE794E00E944A14682F8F2D9E2D94
:100E90000E94E7188CE794E00E941B14009789F7E2
:100EA0000BE0C02ED12CCC0EDD1EC60161E171E03D
:100EB0000E9401188F2D9E2DB6010E9427198C01CA
:100EC000C6010E948F170115110561F428E088E121
:100ED00090E00FB6F894A895809360000FBE209321
:100EE000600026C18E010E5E1F4FC80163E171E0F4
:100EF0000E9401188F2D9E2DB8010E94A619C82EA0
:100F0000C8010E948F17CC2079F08E01075E1F4F19
:100F1000C8016F2D7E2D0E9437188CEC93E0B8012C
:100F20000E94500DC8015BC08E01005E1F4FC801BA
:100F300066E171E00E9401188F2D9E2DB8010E947C
:100F4000A619C82EC8010E948F17CC2009F44AC0E8
:100F500080E493E060E00E94FD1317E2C12ED12CE3
:100F6000CC0EDD1E28853985C6016F2D7E2D46E00D
:100F700050E00E941B1A8F2D9E2D63E070E00E94AE
:100F8000C919082F80E493E0B60140E027E60E94EB
:100F90005A12C6010E948F17888599858C30910559
:100FA00030F46CED75E080E090E00E94F71A80E488
:100FB00093E060E00E94FD13BEE2EB2EF12CEC0EFC
:100FC000FD1EC7016CEC73E00E94BD0F80E493E04E
:100FD000B70140E027E605E60E945A12C7010E94C9
:100FE0008F17A6C08E010B5C1F4FC80169E171E02D
:100FF0000E9401188F2D9E2DB8010E94A619C82E9F
:10100000C8010E948F17CC2009F444C064E670E048
:1010100080E090E00E94F71AA3E4EA2EF12CEC0E97
:10102000FD1EC7016CE171E00E9401188E01045C95
:101030001F4F6091F30370E0660F771F8091D3011B
:1010400090E0880F991F880F991F682B792B80914A
:10105000D20190E0682B792B8091D40190E053E08D
:10106000880F991F5A95E1F7682B792BC80142E048
:101070000E945A18C701B8010E94FA18BC018CE7F7
:1010800094E00E949216C8010E948F17C7010E9427
:101090008F174EC08E01065B1F4FC80160E271E0E2
:1010A0000E9401188F2D9E2DB8010E94A619C82EEE
:1010B000C8010E948F17CC20D9F18E010F5A1F4F03
:1010C00028853985C8016F2D7E2D43E050E00E94B0
:1010D0001B1A8F2D9E2DB8010E941C18C8010E945A
:1010E0008F17488559854F5F5F4F8F2D9E2D7E014D
:1010F0000894E11CF11CB70120E030E00E94CC19FB
:10110000C7010E94901E81708093D201C7010E9486
:10111000901E82708093F303C7010E94901E84701A
:101120008093D301C7010E94901E88708093D401E0
:10113000CE0104960E948F17C95ADF4F0FB6F8945C
:10114000DEBF0FBECDBFCF91DF911F910F91FF90FA
:10115000EF90DF90CF9008950E947B050E94CA0413
:101160008091F203882311F40E944F068CE794E0EB
:101170000E941B141816190614F40E9425070895DE
:10118000CF93DF93EC0107960E948F17CE010E9448
:101190008F17DF91CF9108950F9381309105C9F496
:1011A00084EB92E062E043E020E00E94FB0880E4F0
:1011B00093E06CE04BE02AE009E00E94A51384EC88
:1011C00093E065E00E946A0A8CEC93E00E94310C87
:1011D00006C0009721F48CEC93E00E94C0080F91A8
:1011E000089581E090E00E94CC08089580E090E0AE
:1011F0000E94CC0808950F931F93CF93DF938C0127
:1012000007571F4FF8016083FC01E657FF4F4083EB
:1012100085579F4FFC0120838AB1C1E0D0E09E0139
:1012200002C0220F331F6A95E2F7822BFE0102C033
:10123000EE0FFF1F4A95E2F78E2B8AB92BB1CE0134
:10124000F801008002C0880F991F0A94E2F7282B4A
:101250002BB984E690E00E941E1B9BB1F801008030
:1012600002C0CC0FDD1F0A94E2F79E012095822F69
:1012700089238BB984E690E00E941E1BDF91CF91F9
:101280001F910F910895DF92EF92FF920F931F939A
:10129000CF93DF93EC01D62E663029F42BB18C016D
:1012A00007571F4F04C02BB18C0106571F4F81E019
:1012B000E82EF12CC701F801008002C0880F991FA9
:1012C0000A94E2F7282B2BB982E390E00E941E1BC0
:1012D0008BB1F801008002C0EE0CFF1C0A94E2F70B
:1012E000E094E822EBB889E190E00E941E1B0D2DEE
:1012F00010E083E190E0089FF001099FF00D189F36
:10130000F00D11243C96EC0FFD1F26E09291829186
:10131000938382832150D1F780E00E94631B60E2B7
:1013200070E00E94431C83E190E0089FF001099F58
:10133000F00D189FF00D1124EC0FFD1F71836083D9
:10134000828193819B01281B390B328B218B8685EF
:10135000978568177907D4F07787668760317105BC
:101360002CF06831710524F022E703C027E601C0A4
:101370002FE683E190E0089FF001099FF00D189F90
:10138000F00D1124EC0FFD1F208B03C001979787F0
:101390008687DF91CF911F910F91FF90EF90DF90A3
:1013A0000895603171052CF06831710524F082E7F1
:1013B000089587E608958FE60895CF92DF92EF9221
:1013C000FF920F931F93CF93DF938C01C0E0D0E087
:1013D000EE24FF2493E1C92ED12CC8016C2F0E946A
:1013E0004309CC9DF001CD9DF00DDC9DF00D112445
:1013F000E00FF11F27E081919191E80EF91E215035
:10140000D1F72196C730D10541F7E801CB57DF4F1F
:1014100036E2E31631E0F30644F00E94C31A688313
:1014200079838A839B8381E033C00E94C31A7B0146
:101430008C0188819981AA81BB81E816F9060A0787
:101440001B07A1F00E94C31A288139814A815B8160
:10145000621B730B840B950B21E068393AE3730729
:1014600030E0830730E0930790F010C00E94C31A69
:10147000E61AF70A080B190B21E088E9E8168AE357
:10148000F80680E0080780E0180708F020E0822FC7
:10149000DF91CF911F910F91FF90EF90DF90CF9050
:1014A0000895FC0111821082148A138A17A216A2D1
:1014B00012AE11AEDC01A45BBF4F1D921C92DC0189
:1014C000A15ABF4F11961C921E92EE58FF4F1182E7
:1014D00010820895FC0160832AB181E090E0AC01A4
:1014E00002C0440F551F6A95E2F7242B2AB92BB18D
:1014F000008002C0880F991F0A94E2F7282B2BB9AD
:101500000895DF92EF92FF920F931F93CF93DF9393
:101510007C01C7E0D0E0DD2401E010E0F70180812C
:1015200029B130E0082E02C0359527950A94E2F7DC
:1015300020FFF6CF88E290E00E941E1B29B1F70140
:10154000408130E0042E02C0359527950A94E2F7D9
:1015500020FF08C0C8010C2E02C0880F991F0A94F2
:10156000E2F7D82AC80102C0880F991F4A95E2F70E
:10157000AC0129B130E02423352321153105C9F709
:1015800021979FEFCF3FD90749F68D2DDF91CF915E
:101590001F910F91FF90EF90DF900895EF92FF92CF
:1015A0000F931F93CF93DF93EC0119821A821B8252
:1015B0001C821D822BB101E010E0C801088002C02E
:1015C000880F991F0A94E2F7809582238BB96EE108
:1015D00070E080E090E00E94F71A2BB1C80108800B
:1015E00002C0880F991F0A94E2F7282B2BB988E2D2
:1015F00090E00E941E1B8AB1088002C0000F111FDC
:101600000A94E2F7009508230AB988E290E00E9464
:101610001E1B89B190E0088002C0959587950A94B9
:10162000E2F780FF05C08CE794E063E271E012C04E
:1016300080E590E00E941E1B89B190E0088002C006
:10164000959587950A94E2F780FD07C08CE794E0B2
:1016500061E471E00E94A51659C080E590E00E9407
:101660001E1B8E010F5F1F4F56E0E52EF12CEC0E76
:10167000FD1ECE010E94810AF80181938F01EE15B3
:10168000FF05B9F74AB181E090E09C01088002C0F3
:10169000220F331F0A94E2F7422B4AB92BB108807C
:1016A00002C0880F991F0A94E2F7282B2BB9898171
:1016B00090E02A8130E0EB81F0E00C8110E0B9018C
:1016C000680F791F6E0F7F1F600F711FAD81B0E033
:1016D000AB015070A417B50739F08CE794E042E0F5
:1016E00050E00E94741712C0982F8827822B932BEA
:1016F0002AE030E0B9010E94431C6F839E2F8827A7
:10170000802B912BB9010E94431C6E83DF91CF91F6
:101710001F910F91FF90EF900895AF92BF92CF92DB
:10172000DF92EF92FF920F931F93DF93CF93CDB78A
:10173000DEB72E970FB6F894DEBF0FBECDBF5C01AB
:101740006B01CB010E94CE0A68E0E62EF12CEC0E74
:10175000FD1EC7016FE571E00E9401188E010F5F49
:101760001F4FC801F60167814AE00E948A18C7012D
:10177000B8010E94FA1862E671E00E940D19BC01DE
:10178000C5010E943718C8010E948F17C7010E9427
:101790008F17C5012E960FB6F894DEBF0FBECDBFD2
:1017A000CF91DF911F910F91FF90EF90DF90CF903D
:1017B000BF90AF900895AF92BF92CF92DF92EF9219
:1017C000FF920F931F93DF93CF93CDB7DEB72E9782
:1017D0000FB6F894DEBF0FBECDBF5C016B01CB012D
:1017E0000E94CE0A78E0E72EF12CEC0EFD1EC70118
:1017F00064E671E00E9401188E010F5F1F4FC8015F
:10180000F60166814AE00E948A18C701B8010E9469
:10181000FA1867E671E00E940D19BC01C5010E942B
:101820003718C8010E948F17C7010E948F17C50182
:101830002E960FB6F894DEBF0FBECDBFCF91DF91CD
:101840001F910F91FF90EF90DF90CF90BF90AF90DE
:101850000895DC01ED91FC910190F081E02D099556
:1018600008950F931F93CF93DF93EC0109E611E0E6
:10187000B8010E940118CE010796B8010E94011814
:1018800088EA92E00E943204DF91CF911F910F917C
:101890000895FF920F931F93CF93DF938C01C8EAB3
:1018A000D2E0CE0168E670E00E945704CE0160E00D
:1018B00070E00E94290CCE010E945A04CE0168E615
:1018C00070E047E050E00E944A04CE010E94AB0362
:1018D0008F77982F92959F702AEFF22E9F9D902DD3
:1018E0001124980FF801928FCE010E94AB03982F1C
:1018F00092959F709F9D902D1124980FF801918FC4
:10190000CE010E94AB03982F92959F709F9D902DC2
:101910001124980FF801908FCE010E94AB03CE01E5
:101920000E94AB03982F92959F709F9D902D11243C
:10193000980FF801978BCE010E94AB03982F9295D8
:101940009F709F9D902D1124980FF801968BCE01CA
:101950000E94AB03982F92959F709F9DF02C1124AD
:10196000F80E8F2D90E08053984FF801958B848B63
:10197000DF91CF911F910F91FF900895CF93DF9347
:10198000EC010E94490C898D9B8D981719F08B8F63
:1019900081E001C080E0DF91CF910895AF92BF92C6
:1019A000CF92EF92FF920F931F93DF93CF9300D0CC
:1019B000CDB7DEB7162F58EAA52E52E0B52EC501D9
:1019C00068E670E029834A830E945704C50160E0FD
:1019D00070E00E94290C3AE0F32E8C2D6F2D0E94AE
:1019E000371C682F660F680F660F6C0DC5010E94CB
:1019F00002048E2D6F2D0E94371C682F660F680F12
:101A0000660F6E0DC5010E940204802F6F2D0E948B
:101A1000371C682F660F680F660F600FC5010E94A4
:101A20000204C50160E00E9402042981822F6F2D0B
:101A30000E94371C682F660F680F660F620FC50182
:101A40000E9402044A81842F6F2D0E94371C682F48
:101A5000660F680F660F640FC5010E940204105DD7
:101A6000812F6F2D0E94371C682F660F680F660F3D
:101A7000610FC5010E940204C50160E070E00E9490
:101A8000290CC5010E945A040F900F90CF91DF914D
:101A90001F910F91FF90EF90CF90BF90AF9008955E
:101AA0006F927F928F929F92AF92BF92CF92DF926E
:101AB000EF92FF920F931F93DF93CF93CDB7DEB7D3
:101AC000C956D0400FB6F894DEBF0FBECDBF6C0133
:101AD0000E941C18B3E08B2EF601838AA7E0EA2E41
:101AE000F12CEC0CFD1C5E010894A11CB11CC5017D
:101AF0006AE671E00E940118C601B5010E94161A3B
:101B00009C018E01085F1F4FC801B60143E050E001
:101B10000E941B1AC701B8010E941C18C8010E942C
:101B20008F17C5010E948F178E01015F1F4FC801DB
:101B30006AE671E00E940118C601B8010E94161AF7
:101B40008F5FF601838BC8010E948F17FEE0AF2ED6
:101B5000B12CAC0CBD1CF601438554854F5F5F4F23
:101B6000C701B50120E030E00E94CC19C5010E94F8
:101B7000901EF601878B81508F3128F08CE794E01E
:101B80006CE671E059C1E6E16E2E712C6C0E7D1E83
:101B9000C3016AE671E00E940118F6019388C6014C
:101BA000B301492D50E00E94F8199C018E01035E9B
:101BB0001F4FC801B601492D50E00E941B1AC701F2
:101BC000B8010E941C18C8010E948F17C3010E940F
:101BD0008F178E010C5D1F4FC8016AE671E00E94ED
:101BE0000118F6014389C601B80150E00E94F819B6
:101BF0008F5FF601838BC8010E948F17F601438522
:101C000054854F5F5F4FC701B50120E030E00E946F
:101C1000CC19C5010E94901EF601868B81508C3034
:101C200028F08CE794E066E771E006C1F60143898D
:101C30008E01055D1F4F242F30E02C5F3F4FC80100
:101C4000B60150E00E941B1AC701B8010E941C187F
:101C5000C8010E948F17F60183898B5F838B4385B0
:101C600054854F5F5F4FC701B50120E030E00E940F
:101C7000CC19C5010E94901E9C01F601958B848BA6
:101C80002C5D37402835310528F08CE794E062E878
:101C900071E0D2C072E3672E712C6C0E7D1EC30101
:101CA0006DE871E00E940118F6019388C601B30146
:101CB000492D50E00E94F8199C018E01075C1F4FCE
:101CC000C801B601492D50E00E941B1AC701B80196
:101CD0000E941C18C8010E948F17C3010E948F1711
:101CE0008E01005C1F4FC8016DE871E00E94011871
:101CF000F6014389C601B80150E00E94F8198F5FD0
:101D0000F601838BC8010E948F17F6014385548525
:101D10004F5F5F4FC701B50120E030E00E94CC1952
:101D2000C5010E94901EF601808F893128F08CE752
:101D300094E06FE871E080C067E4662E712C6C0E51
:101D40007D1EC3016DE871E00E940118F6019388C1
:101D5000C601B301492D50E00E94F8199C018E0183
:101D6000025B1F4FC801B601492D50E00E941B1AAB
:101D7000C701B8010E941C18C8010E948F17C30137
:101D80000E948F178E010B5A1F4FC8016DE871E03A
:101D90000E940118F6014389C601B80150E00E9473
:101DA000F8198F5FF601838BC8010E948F17F60127
:101DB000438554854F5F5F4FC701B50120E030E098
:101DC0000E94CC19C5010E94901EF601818F8D33AF
:101DD00028F08CE794E06AE971E02EC0F6014389AF
:101DE0008E01045A1F4F242F30E02E5F3F4FC80151
:101DF000B60150E00E941B1AC701B8010E941C18CE
:101E0000C8010E948F17F60183898D5F838B4385FC
:101E100054854F5F5F4FC701B50120E030E00E945D
:101E2000CC19C5010E94901EF601828F8D3338F0C7
:101E30008CE794E067EA71E00E94A5162DC0F601D8
:101E400043898E010D591F4F242F30E02E5F3F4FE5
:101E5000C801B60150E00E941B1AC701B8010E94D8
:101E60001C18C8010E948F17F601838AC70164EB12
:101E700071E00E945D19882321F0F601808D845F56
:101E8000808FF60164897589C60146892789008D8E
:101E9000E18CC28C0E94CE0CC759DF4F0FB6F8946C
:101EA000DEBF0FBECDBFCF91DF911F910F91FF908D
:101EB000EF90DF90CF90BF90AF909F908F907F90EA
:101EC0006F900895BF92CF92DF92EF92FF920F939F
:101ED0001F93DF93CF93CDB7DEB765970FB6F89416
:101EE000DEBF0FBECDBF6C01B42E69E671E00E946B
:101EF00001188B2D8A3008F598E0E92EF12CEC0EB4
:101F0000FD1EC70167EB71E00E9401188E010F5F93
:101F10001F4FC8016B2D4AE00E948A18C701B80103
:101F20000E94FA18BC01C6010E941C18C8010E9438
:101F30008F17C7010E948F170FC08E01015F1F4FBF
:101F4000C8016B2D4AE00E948A18C601B8010E94A0
:101F50001C18C8010E948F17C60165960FB6F89429
:101F6000DEBF0FBECDBFCF91DF911F910F91FF90CC
:101F7000EF90DF90CF90BF9008956F927F928F92F5
:101F80009F92AF92BF92CF92DF92EF92FF920F9308
:101F90001F93DF93CF93CDB7DEB765970FB6F89455
:101FA000DEBF0FBECDBF4C018B01CB010E94490C9F
:101FB0005E010894A11CB11CC501B801F801408D57
:101FC0000E94620F38E0C32ED12CCC0EDD1EC6015C
:101FD000B5010E943718C6016DE871E00E940D1925
:101FE0003C012FE0E22EF12CEC0EFD1EC701B801E2
:101FF000F801418D0E94620FC301B7010E94FA18D7
:10200000BC01C4010E943718C7010E948F17C60186
:102010000E948F17C5010E948F17C40165960FB6E5
:10202000F894DEBF0FBECDBFCF91DF911F910F910E
:10203000FF90EF90DF90CF90BF90AF909F908F90E8
:102040007F906F9008956F927F928F929F92AF9240
:10205000BF92CF92DF92EF92FF920F931F93DF9385
:10206000CF93CDB7DEB765970FB6F894DEBF0FBE3E
:10207000CDBF4C018B01CB010E94490C5E0108943D
:10208000A11CB11CC501B801F80147890E94620F6B
:1020900058E0C52ED12CCC0EDD1EC601B5010E9424
:1020A0003718C6016AE671E00E940D193C014FE045
:1020B000E42EF12CEC0EFD1EC701B801F801468993
:1020C0000E94620FC301B7010E94FA18BC01C4014B
:1020D0000E943718C7010E948F17C6010E948F17F0
:1020E000C5010E948F17C40165960FB6F894DEBF34
:1020F0000FBECDBFCF91DF911F910F91FF90EF9059
:10210000DF90CF90BF90AF909F908F907F906F9017
:102110000895FF920F931F93CF93DF93EC01F62E58
:102120008C0100581F4FF801808160E00E94D51B90
:10213000CF57DF4F888160E00E94D51B888161E026
:102140000E94D51BF801808161E00E94D51B00E050
:1021500009C0888160E00E94D51B888161E00E94EF
:10216000D51B0F5F0F15A8F3DF91CF911F910F9132
:10217000FF9008951F93CF93DF93EC01FC01E0588B
:10218000FF4F808161E00E94D51B18E0CF57DF4FE1
:10219000888160E00E94D51B888161E00E94D51B88
:1021A0001150B1F7DF91CF911F910895EF92FF92F7
:1021B0000F931F93CF93DF93F62EE42E8C010E57CF
:1021C0001F4FEC01CD57DF4F15C0F801808160E053
:1021D0000E94D51B8E2D8F2119F0888161E002C0ED
:1021E000888160E00E94D51BF801808161E00E9437
:1021F000D51BE694EE2049F7DF91CF911F910F9107
:10220000FF90EF900895EF92FF921F93DF93CF938B
:102210000F92CDB7DEB77C01142F29830E9489105D
:10222000C70165E044E00E94D610C701612F40E479
:102230000E94D610C7012981622F48E00E94D61063
:10224000C7010E94BA100F90CF91DF911F91FF90AC
:10225000EF9008951F93CF93DF93EC01142F0E940A
:102260008910CE0164E044E00E94D610CE01612FB7
:1022700040E80E94D610CE0160E041E00E94D610F6
:10228000CE010E94BA10DF91CF911F910895CF9295
:10229000DF92EF92FF920F931F93CF93DF93EC01A6
:1022A000D42E142F110F81E0603108F480E0180F54
:1022B000E62EFF24273621F0223709F049C023C03B
:1022C0007FE0C72EC622CC0CE02FF0E054E0F5955D
:1022D000E7955A95E1F7CE01612F4C2D2E2F0E94E4
:1022E00003114C2D4F5FCE01612F202F0E9403114F
:1022F000F701EE0FFF1FED0DF11DEE0FFF1FEC0FAD
:10230000FD1F008325C0A7014F705070405F5F4FD5
:10231000C42ECC0CE02FF0E024E0F595E7952A954B
:10232000E1F7CE01612F4C2D2E2F0E9403114C2D71
:102330004F5FCE01612F202F0E940311F701EE0F96
:10234000FF1FED0DF11DEE0FFF1FEC0FFD1F0183B1
:10235000DF91CF911F910F91FF90EF90DF90CF9081
:102360000895AF92BF92CF92DF92FF920F931F9387
:10237000CF93DF936C01162FF42EF694F694F69417
:10238000273669F0283624F4223609F089C065C062
:102390002F3609F445C0223709F082C01EC0C62F6F
:1023A000D0E0477050E8A52EB12C02C0B594A79498
:1023B0004A95E2F7CC0FDD1FCF0DD11DCC0FDD1FED
:1023C000C80FD91F08810A294F2D27E60E944711FF
:1023D0000A2D0095898108235DC0C62FD0E0477083
:1023E00090E8A92EB12C02C0B594A7944A95E2F7C3
:1023F000CC0FDD1FCF0DD11DCC0FDD1FCC0DDD1D92
:1024000009810A29C6014F2D22E70E9447110A2D92
:10241000009588810823C601612F4F2D27E63EC015
:10242000C62FD0E0477080E890E002C09595879570
:102430004A95E2F7A82ECC0FDD1FCF0DD11DCC0F92
:10244000DD1FCC0DDD1D0881082BC6014F2D27E6B1
:102450000E94471109810A291DC0C62FD0E047708C
:1024600080E890E002C0959587954A95E2F7A82EFE
:10247000A094CC0FDD1FCF0DD11DCC0FDD1FCC0DD7
:10248000DD1D08810A21C6014F2D27E60E94471154
:1024900009810A21C601612F4F2D22E70E944711B1
:1024A000DF91CF911F910F91FF90DF90CF90BF9060
:1024B000AF9008952F923F924F925F926F927F92CA
:1024C0008F929F92AF92BF92CF92DF92EF92FF9244
:1024D0000F931F93DF93CF93CDB7DEB729970FB636
:1024E000F894DEBF0FBECDBF2C016B014887222EB2
:1024F000102FFB01848195818630910508F05EC024
:1025000088249924772429E1322E50C0C601B401D1
:102510000E94C919982F9B57943010F48B530CC00C
:10252000982F91569B3118F08F3719F404C08D51B4
:1025300003C0805201C08EE5672C94E0E92EF12C97
:1025400090E05C01AA0CBB1CAA0CBB1CA80EB91E17
:10255000F32DF719F9876394153661F4E4E0F0E0A0
:10256000EE19FF09EA0DFB1DE859FF4F0491C20166
:10257000662D0BC0183669F4F701EA0DFB1DE8590A
:10258000FF4F049169856E0DC2014885222D0E947E
:1025900047110894E108F1088FEFE8168FEFF8066D
:1025A000D1F6E6E07E0E0894811C911CF601848130
:1025B00095818816990608F4A9CF87C05E01089412
:1025C000A11CB11CC50169EB71E00E940118C50195
:1025D000B6010E94FA186FEB71E00E940D19BC0160
:1025E000C6010E941C18C5010E948F177724BFE105
:1025F0006B2E5EC0FF24C40166E070E00E94431CA5
:102600005C018530910509F439C0C6010E94C919E1
:10261000982F9B57943010F48B530CC0982F9156E1
:102620009B3118F08F3719F404C08D5103C08052CC
:1026300001C08EE5153671F490E0FC01EE0FFF1F2E
:10264000EE0FFF1FE80FF91FEA0DFB1DE859FF4FC2
:10265000E49017C01836C9F4E4E0F0E0EA19FB0989
:1026600090E09C01220F331F220F331F280F391FC8
:10267000E20FF31FE859FF4FE49009C0153621F42B
:10268000EE24C2016F2D06C0EE24183641F4662DEB
:102690006F19C2014885222D0E2D0E944711F39417
:1026A0000894811C911C8F2D803209F0A4CF739463
:1026B000872C9924F60184819581880F991F880FB2
:1026C000991F8816990608F495CF29960FB6F894A5
:1026D000DEBF0FBECDBFCF91DF911F910F91FF9055
:1026E000EF90DF90CF90BF90AF909F908F907F90B2
:1026F0006F905F904F903F902F9008950F931F938E
:10270000CF93DF93EC0110E0CE01612F40E022E790
:1027100000E00E944711CE01612F40E027E60E94B1
:102720004711CE01612F41E022E70E944711CE01FF
:10273000612F41E027E60E9447111F5F103221F709
:10274000DF91CF911F910F910895AF92BF92CF92D9
:10275000DF92EF92FF920F931F93CF93DF93EC01E1
:10276000862FFE01E058FF4F608351E8C52ED12C23
:10277000CC0EDD1EF601408342E8A42EB12CAC0E37
:10278000BD1EF501208333E8E32EF12CEC0EFD1E77
:10279000F701008361E00E94B11BF601808161E0D6
:1027A0000E94B11BF501808161E00E94B11BF7011D
:1027B000808161E00E94B11B10E0CE01612F41E0F9
:1027C0000E942A11CE01612F43E00E942A11CE01FE
:1027D000612F40E20E942A111F5F143071F7CE0171
:1027E0000E947E13DF91CF911F910F91FF90EF9088
:1027F000DF90CF90BF90AF900895FF920F931F93FB
:10280000CF93DF93EC01F62E10E0CE01612F4F2D18
:1028100022E700E00E944711CE01612F4F2D27E6ED
:102820000E9447111F5F103281F7DF91CF911F91F6
:102830000F91FF900895FC0184859585FC01E05C73
:10284000FF4F208131818E5B9F4FFC018081918100
:10285000281B390B2F733070C9010895FC01848542
:102860009585FC01E05CFF4F40815181FC01EE5BEE
:10287000FF4F208131814217530741F00190F081D1
:10288000E02DE80FF91F208130E002C02FEF3FEF6D
:10289000C9010895FC0184859585FC01E05CFF4F2A
:1028A00040815181FC01EE5BFF4F20813181421755
:1028B000530771F0A081B181A80FB91F2C918081BD
:1028C000918101968F7390709183808330E002C074
:1028D0002FEF3FEFC9010895DC011E968D919C9169
:1028E0001F97FC01E05CFF4F8E5B9F4F4081518141
:1028F000DC012D913C91119742175307B9F70895C8
:102900001F93FC01162F26853785D901A05CBF4F88
:102910008D919C91019660E470E00E94431CD90166
:10292000AE5BBF4F4D915C91119784179507D1F322
:10293000D901A05CBF4F0D90BC91A02DA20FB31F79
:102940001C93A685B785A05CBF4F11969C938E9370
:10295000A689B7892C9181E090E0058C02C0880F90
:10296000991F0A94E2F7282B2C9381E090E01F91A5
:102970000895FB01E05CFF4F208131812F5F3F4FC5
:102980002F733070DB01AE5BBF4F4D915C9111979F
:102990002417350739F0A081B181A60FB71F8C939A
:1029A00031832083089508951F920F920FB60F92DE
:1029B00011242F933F934F935F936F937F938F9344
:1029C0009F93AF93BF93EF93FF938091C60064EF03
:1029D00073E00E94B914FF91EF91BF91AF919F9165
:1029E0008F917F916F915F914F913F912F910F90B8
:1029F0000FBE0F901F9018958CE794E00E941B1457
:102A0000009711F00E94D31408951F920F920FB6F1
:102A10000F9211242F933F935F936F937F938F9324
:102A20009F93AF93BF93EF93FF93209178043091DE
:102A3000790480917A0490917B042817390731F446
:102A40008091C1008F7D8093C10016C0E0917A040F
:102A5000F0917B04E85CFB4F208180917A04909197
:102A60007B04019660E470E00E94431C90937B0419
:102A700080937A042093C600FF91EF91BF91AF91AC
:102A80009F918F917F916F915F913F912F910F90C7
:102A90000FBE0F901F901895DF92EF92FF920F9349
:102AA0001F93CF93DF93EC017A018B01DD24D39444
:102AB000403081EE580780E0680780E0780749F4ED
:102AC000DD24EC89FD89108260E874E88EE190E0F5
:102AD0000FC0EC89FD8981E090E00E8C02C0880F68
:102AE000991F0A94E2F7808360E079E08DE390E03B
:102AF000A80197010E94561C215030404040504090
:102B0000569547953795279580E12030380710F086
:102B1000DD20B1F6E889F9893083EA89FB892083D1
:102B2000EE89FF89408181E090E09C010A8C02C01F
:102B3000220F331F0A94E2F7422B4083EE89FF896C
:102B400040819C010B8C02C0220F331F0A94E2F7D4
:102B5000422B4083EE89FF8940819C010C8C02C08E
:102B6000220F331F0A94E2F7422B4083EE89FF893C
:102B700020810D8C02C0880F991F0A94E2F780957E
:102B800082238083DF91CF911F910F91FF90EF906F
:102B9000DF90089510927F0410927E0488EE93E0F7
:102BA000A0E0B0E08093800490938104A09382041D
:102BB000B0938304EEE7F4E08AEE91E0929382937F
:102BC00084EF93E09587848788E394E097878687EE
:102BD00085EC90E0918B808B84EC90E0938B828BE2
:102BE00080EC90E0958B848B81EC90E0978B868BCA
:102BF00086EC90E0918F808F84E0828F83E0838FDA
:102C000087E0848F85E0858F81E0868F0895CF925D
:102C1000DF92EF92FF920F931F93CF93DF936C019C
:102C20007B018A01C0E0D0E00FC0D7016D917D012A
:102C3000D601ED91FC910190F081E02DC60109953E
:102C4000C80FD91F015010400115110571F7CE01B1
:102C5000DF91CF911F910F91FF90EF90DF90CF9078
:102C60000895DB010D900020E9F7AD01415050407F
:102C7000461B570BDC01ED91FC910280F381E02DA6
:102C800009950895AF92BF92CF92DF92EF92FF9293
:102C90000F931F93CF93DF937C016B01C0E0D0E0D3
:102CA00000E010E010C0D701ED91FC91A080B18050
:102CB000C601BE010E94B619682FC701F50109952A
:102CC000080F191F2196F60184819581C817D9072D
:102CD00050F3C801DF91CF911F910F91FF90EF90BA
:102CE000DF90CF90BF90AF900895DC01ED91FC9103
:102CF0000190F081E02D099508950F931F93CF93D4
:102D0000DF93EC016DE00E9475168C01CE016AE044
:102D10000E947516080F191FC801DF91CF911F91EE
:102D20000F9108950F931F93CF93DF93EC010E94AF
:102D300042168C01CE010E947D16080F191FC80192
:102D4000DF91CF911F910F9108950F931F93CF9310
:102D5000DF93EC010E9431168C01CE010E947D169A
:102D6000080F191FC801DF91CF911F910F9108958E
:102D70008F929F92AF92BF92CF92DF92EF92FF928B
:102D80000F931F93DF93CF93CDB7DEB7A1970FB605
:102D9000F894DEBF0FBECDBF6C01042FE52FCB0131
:102DA000122F19A2223008F41AE021E2E22EF12CAF
:102DB000EC0EFD1E812E9924AA24BB2403C0022FF1
:102DC000E32FCA01602F7E2FA50194010E94561C9B
:102DD000129F802D1124081B0894E108F1080A3085
:102DE00014F4005D01C0095CF70100832115310571
:102DF0004105510521F7C601B7010E943116A19680
:102E00000FB6F894DEBF0FBECDBFCF91DF911F91FB
:102E10000F91FF90EF90DF90CF90BF90AF909F9079
:102E20008F9008952115310549F4DC01ED91FC9155
:102E30000190F081E02D642F099508950E94B81645
:102E400008950F931F93CF93DF93EC019A01462FC0
:102E500050E060E070E00E9412178C01CE010E94E9
:102E60007D16080F191FC801DF91CF911F910F9197
:102E70000895CF92DF92EF92FF920F931F93CF931B
:102E8000DF93EC017A018B012115310541F4E881D2
:102E9000F9810190F081E02D642F09951AC02A3044
:102EA0003105A9F477FF12C06DE20E9475166C011E
:102EB00044275527BA014E195F09600B710BCE01EB
:102EC0002AE00E94B816C80ED91E04C02AE00E944B
:102ED000B8166C01C601DF91CF911F910F91FF9041
:102EE000EF90DF90CF9008950F931F93CF93DF93D0
:102EF000EC019A01CB01AC01662757FD6095762F56
:102F0000CE010E9439178C01CE010E947D16080F58
:102F1000191FC801DF91CF911F910F910895FC01F6
:102F2000808191810E942C1D0895CF93DF93EC0145
:102F300088819981009711F00E942C1D19821882B6
:102F40001D821C821B821A82DF91CF9108950F93FC
:102F50001F93CF93DF93EC018B016F5F7F4F8881CD
:102F600099810E94C51D009731F0998388831B8346
:102F70000A8381E001C080E0DF91CF911F910F9122
:102F80000895CF93DF93EC0188819981009729F010
:102F90008A819B818617970778F4CE010E94A71734
:102FA000882341F08C819D81009731F4E881F9817B
:102FB000108202C080E001C081E0DF91CF910895CE
:102FC000EF92FF920F931F93CF93DF93EC017B015E
:102FD0008A01BA010E94C117882321F4CE010E9400
:102FE000951707C01D830C8388819981B7010E94C2
:102FF000C01ECE01DF91CF911F910F91FF90EF90F6
:103000000895CF93DF93FC01118210821382128204
:103010001582148216826115710559F0EB01099031
:103020000020E9F7AE0141505040461B570B0E946B
:10303000E017DF91CF910895EF92FF92CF93DF9346
:10304000EC01FB018617970761F0608171816115C2
:10305000710529F0448155810E94E01702C00E9449
:103060009517CE01DF91CF91FF90EF900895FC016D
:1030700011821082138212821582148216820E949B
:103080001C1808950F931F938C016115710561F051
:10309000DB010D900020E9F7AD0141505040461B87
:1030A000570B0E94E01702C00E949517C8011F919C
:1030B0000F910895EF92FF920F931F93DF93CF9399
:1030C000CDB7DEB762970FB6F894DEBF0FBECDBFA7
:1030D0007C01CB01F70111821082138212821582CA
:1030E000148216828E010F5F1F4FB80150E00E94BC
:1030F000FE1EC701B8010E94421862960FB6F894EE
:10310000DEBF0FBECDBFCF91DF911F910F91FF901A
:10311000EF900895EF92FF920F931F93DF93CF9359
:10312000CDB7DEB729970FB6F894DEBF0FBECDBF7F
:103130007C01862FF7011182108213821282158280
:103140001482168290E08E010F5F1F4FB80150E08D
:103150000E94271FC701B8010E94421829960FB686
:10316000F894DEBF0FBECDBFCF91DF911F910F91BD
:10317000FF90EF900895EF92FF920F931F93CF93DC
:10318000DF93EC017B010C811D8161157105B9F0A4
:103190004115510591F0040F151FB8010E94C11788
:1031A000882369F0288139818C819D81820F931F4A
:1031B000B7010E94C01E1D830C8381E001C080E026
:1031C000DF91CF911F910F91FF90EF900895DF93C2
:1031D000CF9300D0CDB7DEB769831A82BE016F5F8F
:1031E0007F4F41E050E00E94BB180F900F90CF91AD
:1031F000DF9108950F931F938C01FB016081718112
:10320000448155810E94BB18882319F4C8010E948B
:103210009517C8011F910F9108950F931F938C016B
:103220006115710569F0DB010D900020E9F7AD0132
:1032300041505040461B570B0E94BB18882319F47D
:10324000C8010E949517C8011F910F910895CF934F
:10325000DF93FC01DB0180819181009731F06D915A
:103260007C91119761157105E9F4CD91DC9111976D
:10327000209769F014962D913C91159721153105F1
:1032800031F0288130E0309521953F4F12C00097F2
:1032900071F0248135812115310549F0FC0120812F
:1032A00030E007C00E94B71E282F392F02C020E04F
:1032B00030E0C901DF91CF910895FC0184819581AF
:1032C000009741F46115710519F081E0FB0109C017
:1032D00081E008950190F081E02D6115710531F4D0
:1032E00081E09081992359F080E00895CF010E94F8
:1032F000B71E9C0181E02115310509F080E0089599
:10330000FC01DB01CA0114964D915C911597248153
:103310003581241B350B28173907A0F02081318116
:103320002115310579F06D917C9111976115710529
:1033300059F0820F931F0E94C71E9C0181E0211546
:10334000310519F080E0089580E00895FC01448182
:103350005581FB01248135814217530728F040E055
:1033600050E00E948019089580E00895FC01848156
:1033700095816817790748F480819181009739F029
:10338000680F791FFB018081089580E0089580E037
:1033900008950E94B61908950F931F93CF93DF935A
:1033A000FC018B0141155105F1F061157105D9F052
:1033B000C481D5812C173D0718F0FB01108213C082
:1033C00041505040C21BD30B4C175D0708F4EA0173
:1033D00060817181620F731FC801AE010E94D51E0A
:1033E000C00FD11F1882DF91CF911F910F910895C7
:1033F000CF93DF93FC01CA01248135814217530723
:1034000078F4C081D181FB01608171818C0F9D1F97
:103410000E94E41E009721F09C012C1B3D0B02C072
:103420002FEF3FEFC901DF91CF91089540E050E0C9
:103430000E94F8190895AF92BF92CF92DF92EF9257
:10344000FF920F931F93CF93DF93F82EE92E6B011A
:103450008A01E9012417350748F4342F212F8E0102
:10346000C901A92EE5015E01B22EE5018F2D9E2D29
:103470006BEC71E00E940118D60114968D919C911D
:10348000159780179107D8F08C179D0708F4EC0169
:10349000D601ED91FC911197EC0FFD1FB0801082C9
:1034A0006D917C91600F711F8F2D9E2D0E9442188F
:1034B000D601ED91FC911197EC0FFD1FB0828F2D7D
:1034C0009E2DDF91CF911F910F91FF90EF90DF9094
:1034D000CF90BF90AF900895CF93DF930E94281BA9
:1034E0000E948104CCEFD4E10E94AC082097E1F364
:1034F0000E94FC14F9CF1F920F920FB60F92112465
:103500002F933F938F939F93AF93BF9380919F048B
:103510009091A004A091A104B091A2043091A304C1
:103520000196A11DB11D232F2D5F2D3720F02D57A2
:103530000196A11DB11D2093A30480939F04909335
:10354000A004A093A104B093A20480919B04909145
:103550009C04A0919D04B0919E040196A11DB11DF3
:1035600080939B0490939C04A0939D04B0939E042D
:10357000BF91AF919F918F913F912F910F900FBE6F
:103580000F901F9018958FB7F89420919F04309159
:10359000A0044091A1045091A2048FBFB901CA01B7
:1035A00008959FB7F89420919B0430919C0440911A
:1035B0009D0450919E0486B5A89B06C08F3F21F0C4
:1035C0002F5F3F4F4F4F5F4F9FBF542F432F322FDF
:1035D0002227280F311D411D511D82E0220F331F6C
:1035E000441F551F8A95D1F7B901CA010895EF927A
:1035F000FF920F931F93CF93DF937B018C010E9467
:10360000D11AEB010FC00E94D11A6C1B7D0B83E015
:10361000683E780738F00894E108F10801091109BB
:10362000C851DC4FE114F1040105110561F7DF9188
:10363000CF911F910F91FF90EF900895019739F06E
:10364000880F991F880F991F02970197F1F7089526
:10365000789484B5826084BD84B5816084BD85B56D
:10366000826085BD85B5816085BDEEE6F0E0808134
:1036700081608083E1E8F0E0108280818260808355
:10368000808181608083E0E8F0E0808181608083D8
:10369000E1EBF0E0808184608083E0EBF0E080810A
:1036A00081608083EAE7F0E08081846080838081AC
:1036B0008260808380818160808380818068808354
:1036C0001092C10008958E3008F08E50877090914E
:1036D000D5019295990F990F907C982B90937C002F
:1036E00080917A00806480937A0080917A0086FDD0
:1036F000FCCF2091780030917900932F80E030E06A
:10370000282B392BC9010895833071F0843028F4B7
:103710008130A1F0823021F514C08630B1F08730BD
:10372000D1F08430E9F404C0809180008F7703C029
:10373000809180008F7D80938000089584B58F777D
:1037400002C084B58F7D84BD08958091B0008F77CD
:103750008093B00008958091B0008F7D8093B00079
:10376000089590E0FC01EB58FD4F2491FC01EF59C6
:10377000FD4FE491EE23C1F0F0E0EE0FFF1FED5B93
:10378000FD4F85919491DC01662341F49FB7F89435
:103790008C91209582238C939FBF08959FB7F894B6
:1037A0008C91822B8C939FBF08950F931F93DF936F
:1037B000CF930F92CDB7DEB7282F30E0F901E7574E
:1037C000FD4F8491F901EB58FD4F14912F593D4F56
:1037D000F90104910023D9F0882321F069830E9424
:1037E000841B6981E02FF0E0EE0FFF1FE35BFD4FCC
:1037F00085919491DC019FB7F894662321F48C9114
:103800001095812302C08C91812B8C939FBF0F90C8
:10381000CF91DF911F910F9108950F931F93282F40
:1038200030E0F901E757FD4F8491F901EB58FD4F66
:1038300004912F593D4FF9011491112391F08823E0
:1038400011F00E94841BE12FF0E0EE0FFF1FE95AF8
:10385000FD4F85919491DC018C91802321E030E033
:1038600011F420E030E0C9011F910F910895991BD8
:1038700079E004C0991F961708F0961B881F7A9567
:10388000C9F78095089597FB092E07260AD077FD82
:1038900004D02ED006D000201AF4709561957F4F89
:1038A0000895F6F7909581959F4F0895A1E21A2EFD
:1038B000AA1BBB1BFD010DC0AA1FBB1FEE1FFF1FD4
:1038C000A217B307E407F50720F0A21BB30BE40B24
:1038D000F50B661F771F881F991F1A9469F760956B
:1038E0007095809590959B01AC01BD01CF01089525
:1038F000AA1BBB1B51E107C0AA1FBB1FA617B70716
:1039000010F0A61BB70B881F991F5A95A9F7809531
:103910009095BC01CD010895EE0FFF1F0590F49125
:10392000E02D0994CF93DF938230910510F482E06B
:1039300090E0E091A604F091A70440E050E020E080
:1039400030E026C06081718168177907E0F0681760
:10395000790781F4828193812115310531F0D901F4
:1039600013969C938E9312972BC09093A7048093E9
:10397000A60426C04115510519F06417750718F4FF
:10398000AB01E901DF019F0172816381E72FF62F0F
:103990003097C1F64115510501F1481B590B4430D0
:1039A000510580F412968D919C911397209719F0F0
:1039B0009B838A8304C09093A7048093A604FD018F
:1039C000329646C0FD01E40FF51F8193919342505A
:1039D000504011965C934E933BC02091A4043091CB
:1039E000A5042115310541F42091CE013091CF017C
:1039F0003093A5042093A4042091D0013091D101EB
:103A00002115310541F42DB73EB74091CC015091BD
:103A1000CD01241B350BE091A404F091A504E2171D
:103A2000F307A0F42E1B3F0B2817390778F0AC01E1
:103A30004E5F5F4F2417350748F04E0F5F1F5093BE
:103A4000A5044093A4048193919302C0E0E0F0E0C8
:103A5000CF01DF91CF910895CF93DF93009709F4C1
:103A600091C0FC013297138212826091A60470917A
:103A7000A7046115710581F420813181280F391F58
:103A80008091A4049091A5048217930799F5F0936F
:103A9000A504E093A40476C0DB0180E090E002C0BE
:103AA000CD01D901AE17BF0748F412962D913C9174
:103AB000139721153105A1F7CD0121C0B383A2834E
:103AC000EF01499159919E01240F351FA217B307A9
:103AD00079F42D913C911197240F351F2E5F3F4FA4
:103AE0003183208312962D913C9113973383228347
:103AF000009729F4F093A704E093A60443C0DC01E7
:103B00001396FC93EE9312974D915D91A40FB51F00
:103B1000EA17FB0769F420813181240F351F2E5FDE
:103B20003F4FEC0139832883228133813B832A83F1
:103B3000E0E0F0E002C0FB01BC01DB0112968D91D8
:103B40009C9113970097B9F79B012E5F3F4F8D9182
:103B50009C911197820F931F4091A4045091A5044A
:103B60004817590779F4309729F41092A704109256
:103B7000A60402C013821282225030403093A50462
:103B80002093A404DF91CF910895A0E0B0E0EBEC86
:103B9000FDE10C94531F8C01CB010115110529F493
:103BA0000E94921C082F192FB5C0D80112979801B6
:103BB000260F371F2A173B0708F4AAC0ED90FC9088
:103BC0001197E616F706D0F045E0E416F10408F484
:103BD000A1C0A701445050404617570708F49AC0A7
:103BE000A70142505040461B570BF9014193519396
:103BF0006D937C93CF010E942C1D8CC05B01AE188D
:103C0000BF0848018E0C9F1CE091A604F091A70408
:103C1000CC24DD24C0E0D0E041C0E815F90599F5D9
:103C200060817181AB014E5F5F4F4A155B0558F1B2
:103C3000AB014A195B09CC24DD246894C1F8C40E99
:103C4000D51E8280A380E5E0CE16D10448F0F901AC
:103C50008282A3825183408311969C938E9309C0E4
:103C6000C7010296860F971F11969C938E93E82D9D
:103C7000FA2D209719F0FB83EA834CC0F093A70438
:103C8000E093A60447C040815181C416D50608F4CC
:103C90006A01EF0152814381E52FF42F309709F03B
:103CA000BCCF4091A4045091A50448155905E9F4EE
:103CB000C816D906D0F44091D0015091D1014115D8
:103CC000510541F44DB75EB76091CC017091CD01C3
:103CD000461B570B24173507D8F43093A5042093BF
:103CE000A40411969C938E9315C00E94921CC82E1A
:103CF000E6016E01D92EE601209751F08C2DB80116
:103D0000A7010E94AE1EC8010E942C1D860102C0A0
:103D100000E010E0C801CDB7DEB7ECE00C946F1FF7
:103D2000FC0188279927E89421912032E9F3293072
:103D300010F02E30C8F32B3241F02D3239F4689454
:103D400004C00E941F1F820F911D219120532A3011
:103D5000C0F31EF4909581959F4F0895FB01DC01FF
:103D600002C001900D9241505040D8F70895FB01D8
:103D7000DC018D91019080190110D9F3990B089500
:103D8000FB01DC0101900D920020E1F70895FB0199
:103D9000DC014150504030F08D910190801919F4B0
:103DA0000020B9F7881B990B0895FB01DC014150F5
:103DB000504048F001900D920020C9F701C01D92BB
:103DC00041505040E0F70895FB0151915523A9F06F
:103DD000BF01DC014D9145174111E1F759F4CD01C7
:103DE0000190002049F04D9140154111C9F3FB01AC
:103DF0004111EFCF81E090E001970895FB019F0111
:103E0000E8944230C4F04532B4F44A3029F497FBC8
:103E10001EF4909581959F4F642F77270E94781C00
:103E2000805D8A330CF0895D8193CB010097A1F707
:103E300016F45DE251931082C9010C943D1F7AE0A3
:103E4000979F902D879F802D910D11240895FB0140
:103E50009F01423074F0453264F4642F77270E944A
:103E6000781C805D8A330CF0895D8193CB010097CB
:103E7000A1F71082C9010C943D1FDC01FC01672FE2
:103E800071917723E1F7329704C07C916D93708331
:103E90006291AE17BF07C8F308952F923F924F92D9
:103EA0005F926F927F928F929F92AF92BF92CF92CA
:103EB000DF92EF92FF920F931F93CF93DF93CDB7D3
:103EC000DEB7CA1BDB0B0FB6F894DEBF0FBECDBF4B
:103ED00009942A88398848885F846E847D848C841C
:103EE0009B84AA84B984C884DF80EE80FD800C8125
:103EF0001B81AA81B981CE0FD11D0FB6F894DEBF08
:103F00000FBECDBFED01089512E0C4EAD2E004C0B7
:103F1000FE010E948E1C2296C63AD107C9F7F8947A
:023F2000FFCFD1
:103F2200425547003F3F3A3F3F0030353A35300077
:103F3200005200633A00743A006D3F006D3A20006F
:103F42006D3A0052485430333A20526573706F6EA6
:103F5200736520436865636B2031204572726F720E
:103F62000052485430333A20526573706F6E736555
:103F720020436865636B2032204572726F7200487D
:103F82003A002500543A004300002F004461792092
:103F92004572726F72004D6F6E7468204572726F57
:103FA200720059656172204572726F72003A004860
:103FB2006F7572204572726F72004D696D7574650E
:103FC200204572726F72005365636F6E6420457292
:103FD200726F7200504D00300020202020200020FF
:103FE2002020202020202020202000002000A804C3
:103FF200000001010101000000000204D003A2033D
:10400200AB03BF03CF0300000000801407161B148C
:064012004A142E146C1488
:00000001FF
